:020000040000fa
:04025c004c1400003e
:020000040000fa
:040210004c1400008a
:020000040000fa
:040274004c14000026
:020000040000fa
:040334004c14000065
:020000040000fa
:04035c004c1400003d
:020000040000fa
:040270004c1400002a
:020000040000fa
:04022c004c1400006e
:020000040000fa
:04023c004c1400005e
:020000040000fa
:0402bc004c140000de
:020000040000fa
:0402c0004c140000da
:020000040000fa
:0402c4004c140000d6
:020000040000fa
:0402c8004c140000d2
:020000040000fa
:040280004c1400001a
:020000040000fa
:040284004c14000016
:020000040000fa
:04039c004c140000fd
:020000040000fa
:040228004c14000072
:020000040000fa
:040278004c14000022
:020000040000fa
:04029c004c140000fe
:020000040000fa
:0402fc004c1400009e
:020000040000fa
:040300004c14000099
:020000040000fa
:040260004c1400003a
:020000040000fa
:040264004c14000036
:020000040000fa
:04027c004c1400001e
:020000040000fa
:040288004c14000012
:020000040000fa
:0402b0004c140000ea
:020000040000fa
:0402b4004c140000e6
:020000040000fa
:0402b8004c140000e2
:020000040000fa
:040238004c14000062
:020000040000fa
:0402e0004c140000ba
:020000040000fa
:0402e4004c140000b6
:020000040000fa
:0402e8004c140000b2
:020000040000fa
:0402f4004c140000a6
:020000040000fa
:0402f8004c140000a2
:020000040000fa
:040304004c14000095
:020000040000fa
:040308004c14000091
:020000040000fa
:04030c004c1400008d
:020000040000fa
:040310004c14000089
:020000040000fa
:040314004c14000085
:020000040000fa
:040318004c14000081
:020000040000fa
:04031c004c1400007d
:020000040000fa
:040324004c14000075
:020000040000fa
:040328004c14000071
:020000040000fa
:040338004c14000061
:020000040000fa
:04033c004c1400005d
:020000040000fa
:040340004c14000059
:020000040000fa
:040344004c14000055
:020000040000fa
:04034c004c1400004d
:020000040000fa
:040350004c14000049
:020000040000fa
:040354004c14000045
:020000040000fa
:040358004c14000041
:020000040000fa
:040360004c14000039
:020000040000fa
:040364004c14000035
:020000040000fa
:040368004c14000031
:020000040000fa
:040348004c14000051
:020000040000fa
:04026c004c1400002e
:020000040000fa
:0402f0004c140000aa
:020000040000fa
:04037c004c1400001d
:020000040000fa
:040218004c14000082
:020000040000fa
:040230004c1400006a
:020000040000fa
:040240004c1400005a
:020000040000fa
:04028c004c1400000e
:020000040000fa
:040290004c1400000a
:020000040000fa
:0402cc004c140000ce
:020000040000fa
:0402d0004c140000ca
:020000040000fa
:0402d4004c140000c6
:020000040000fa
:0402d8004c140000c2
:020000040000fa
:040398004c14000001
:020000040000fa
:04020c004c1400008e
:020000040000fa
:0402dc004c140000be
:020000040000fa
:040320004c14000079
:020000040000fa
:040208004c14000092
:020000040000fa
:04021c004c1400007e
:020000040000fa
:040220004c1400007a
:020000040000fa
:040224004c14000076
:020000040000fa
:040268004c14000032
:020000040000fa
:0402ec004c140000ae
:020000040000fa
:040378004c14000021
:020000040000fa
:04024c004c1400004e
:020000040000fa
:040250004c1400004a
:020000040000fa
:0402a8004c140000f2
:020000040000fa
:0402ac004c140000ee
:020000040000fa
:040390004c14000009
:020000040000fa
:040394004c14000005
:020000040000fa
:040214004c14000086
:020000040000fa
:040234004c14000066
:020000040000fa
:040244004c14000056
:020000040000fa
:040248004c14000052
:020000040000fa
:040294004c14000006
:020000040000fa
:040298004c14000002
:020000040000fa
:04032c004c1400006d
:020000040000fa
:040254004c14000046
:020000040000fa
:040258004c14000042
:020000040000fa
:040330004c14000069
:020000040000fa
:0402a0004c140000fa
:020000040000fa
:0402a4004c140000f6
:020000040000fa
:04036c004c1400002d
:020000040000fa
:040370004c14000029
:020000040000fa
:040374004c14000025
:020000040000fa
:040384004c14000015
:020000040000fa
:040388004c14000011
:020000040000fa
:04038c004c1400000d
:020000040000fa
:040380004c14000019
:020000040000fa
:080000001011040000000000d3
:020000040000fa
:10222000af8920000eff27000e018800000000008b
:10223000000020000000e000020032000001200049
:102240002002880014000700770007000000e0006b
:1022500003003a00e04221000100200002003700a4
:102260000000200001002000810f700001003200fa
:1022700014000700000020000000e000020032000f
:102280000000020000000000ca120200000000006e
:102290000040da000000fe004440a90020002000b9
:1022a0000000e000030032001000200090018800d0
:1022b0004440a800000006008a1f78008b1f7800a9
:1022c00000000600a1028800800478000000eb00f6
:1022d0001f003700e284440054a0b4009905ba00fe
:1022e000e284440054a0b4009906ba00e284440099
:1022f00054a0b4000006eb00476fde00fd07b200fb
:10230000ae018800636ce10003003a00eaff0700b9
:102310000000eb000e003700606ce10008003a009e
:10232000004deb000a05e800020039003420ec0003
:102330000af0a0008b05e900f9ff3e000400370019
:102340006168e100010032000086eb000b0007002d
:1023500019c7ba001905ba000e04e00003003a00dc
:102360000a00e000dbff3a0000000600fe07b200b2
:10237000ae0288008a047800f5ff37000cd0a30075
:10238000e20f4d001c00390089027800354dba007b
:102390000a05e800020039003420ec000af0a00031
:1023a0008b05e9000f003200254dba000a05e80050
:1023b000020039003420ec000af0a0008b05e9008f
:1023c000080032000c00e0000600320015cdba0013
:1023d0000a05e800020039003420ec000af0a000f1
:1023e0008b05e9008984e80054a0b4000b00e000ec
:1023f000e2ff3a00000006009902ba00055d78008d
:102400008b05e900f7ff3200c82ade00055d780081
:102410008b05e900f3ff32000c00e000f1ff320011
:1024200019ddba00eeff370000000500889fbe00ee
:10243000704080000000e000010032000000010058
:10244000804080000000e000010032000000010038
:10245000c08020001004e00022003a00b044800058
:10246000c144800088002000d26026009301200033
:1024700035000700f2352f00e3c6230000004100bd
:10248000818049000804e900f7ff3a002881200014
:102490000908200088844400d260260093012000af
:1024a00029000700f2352f00e3c623000000410099
:1024b0008180490000acbe00890f5400f6ff3a004d
:1024c000b0448800c144880090448000a14480004a
:1024d00090408800a140880011c0b300c080200057
:1024e00001487800d260260093012000b0448000ab
:1024f000c144800014000700f2352f00e3c623001a
:102500000002410081824900b4448800c54488002b
:1025100020812000100078007f0160004211dd0062
:1025200060812000020140001200be00904088003f
:10253000a14088000489be000100780000f0a100dd
:102540004f04be0000000600020ab900001bb900db
:102550000200b80081004200810043000000060034
:020000040000fa
:1020000010110400000000004c1404000000000047
:102010004c140400000000004c14040000000000f8
:102020004c140400000000004c14040000000000e8
:102030004c140400000000004c14040000000000d8
:102040004c14040000000000e41304000000000031
:102050004c140400000000004c14040000000000b8
:102060004c140400000000004c14040000000000a8
:102070004c140400000000004c1404000000000098
:102080004c140400000000004c1404000000000088
:102090004c140400000000004c1404000000000078
:1020a0004c140400000000004c1404000000000068
:1020b0004c140400000000004c1404000000000058
:1020c0004c140400000000004c1404000000000048
:1020d0004c140400000000004c1404000000000038
:1020e0004c140400000000004c1404000000000028
:1020f0004c140400000000004c1404000000000018
:102100004c140400000000004c1404000000000007
:102110004c140400000000004c14040000000000f7
:102120004c140400000000004c14040000000000e7
:102130004c140400000000004c14040000000000d7
:102140004c140400000000004c14040000000000c7
:102150004c140400000000004c14040000000000b7
:102160004c140400000000004c14040000000000a7
:102170004c140400000000004c1404000000000097
:102180004c140400000000004c1404000000000087
:102190004c140400000000004c1404000000000077
:1021a0004c140400000000004c1404000000000067
:1021b0004c140400000000004c1404000000000057
:1021c0004c140400000000004c1404000000000047
:1021d0004c140400000000004c1404000000000037
:1021e0004c140400000000004c1404000000000027
:1021f0004c140400000000004c1404000000000017
:102200004c140400000000004c1404000000000006
:102210004c140400000000004c14040000000000f6
:020000040000fa
:1000080004100000081000000c1000001010000080
:10001800141000000c1100000c1100000c1100005d
:10002800181000001c100000201000002410000010
:100038000c110000281000002c10000030100000e7
:1000480034100000381000003c1000004010000080
:1000580044100000481000000c1100000c110000b2
:100068004c10000050100000541000005810000000
:100078005c1000000c11000060100000641000000b
:100088000c110000681000006c10000070100000d7
:1000980074100000781000007c1000008010000030
:1000a80084100000881000000c1100000c110000e2
:1000b8000c1100008c10000090100000941000003b
:1000c800981000009c100000a0100000a410000070
:1000d800a8100000ac1000000c1100000c1100006a
:1000e8000c110000b0100000b41000000c1100004a
:1000f8000c110000b8100000bc1000000c1100002a
:100108000c1100000c1100000c1100000c11000073
:100118000c1100000c110000c01000000c110000b0
:100128000c110000c4100000c8100000cc10000022
:100138000c1100000c1100000c1100000c11000043
:10014800d01000000c1100000c1100000c11000070
:100158000c110000d41000000c1100000c1100005c
:100168000c110000d8100000dc100000e0100000a6
:10017800e4100000e8100000ec100000f01000008f
:10018800f4100000f8100000fc100000001100003e
:1001980004110000081100000c1100000c110000ef
:1001a8000c1100000c1100000c1100000c110000d3
:1001b8000c1100000c1100000c1100000c110000c3
:1001c8000c1100000c1100000c1100000c110000b3
:1001d8000c1100000c1100000c1100000c110000a3
:1001e8000c1100000c1100000c1100000c11000093
:0801f8000c1100000c110000c5
:020000040000fa
:102560000200fa00b1ff07000177210001017800a5
:10257000110009000200d8008000fd0080007800f2
:10258000007d2000008f40001e0078000080fa00cf
:10259000000006000c00fa004e0007009e00070035
:1025a000a9000700008fbe00edff0700200798007c
:1025b00003003700000000000100370000000000a9
:1025c000a10007003007980041079800d11680004d
:1025d00000802000008060000000e000f5ff3a006d
:1025e0002e009000cf80de003e014000ae8148000a
:1025f0003e009000ce009000800f5100818f590066
:10260000eeff3e00db42a8000100370000000000a2
:102610008d00070050079800d116800000022000ae
:10262000008060000000e00013003a00db42a900d7
:10263000da82a800010037000000000082000700d5
:102640003007980041079800de00900080bb200012
:10265000008040006101b9003e009000ce00900073
:10266000800f5100818f5900f3ff3e00da82a900ec
:10267000c8ff0700f1ff3700d0168000640060003b
:102680000000e000e1ff3a00db42a900da62a800a6
:1026900001003700000000006b00070030079800c1
:1026a00041079800de00900080bb200000804000c1
:1026b0006101b9003e009000ce009000800f5100f3
:1026c000818f5900f3ff3e00da62a900b1ff0700d5
:1026d000f1ff37000000fa0000102000203a8800c7
:1026e000d8a2a800d882a900e882a800e8a2a80081
:1026f000c9e2a800e862a800d902a800d962a8002f
:10270000d922a900d942a900d802a800d822a8003d
:10271000d842a800d862a900c8a2a800c882a80010
:10272000c862a800c842a800c822a800c802a80021
:10273000f003200010278800e424ef00e624ef00d7
:10274000ea24ef00ec24ef00000e200000198800be
:102750002223ef0000c42000201988005000200030
:102760004019880021e3a800d8e2a900dce2a90012
:10277000e802a900ec02a900e822a900ec22a900c5
:10278000d1e2a800d182a800c982a8000080fa0086
:10279000000006000200fa00000f78009e0078009a
:1027a000411988002023a8000000000000198000c3
:1027b000610060000000e000fcff320000188000b3
:0827c0000080fa000000060091
:020000040000fa
:1027c800809fbe003200f8003400f800100020009e
:1027d800a001880010002000900188000000fa0085
:1027e8008460a900404080005140800061004000a2
:1027f800e080480040408800514088000080fa008e
:102808003400f9003200f9004f00be000040060015
:020000040000fa
:102818000000fa000828ef000a28ef000421ef0062
:10282800f0e72300100888000021ef008460a90069
:102838009460a80005e1a8000080fa0000000600e6
:102848000000fa0040408000514080000080fa00fb
:042858000000060076
:020000040000fa
:10285c0000080000080000008000000008080000cc
:10286c000400000080000000960800000400000036
:10287c008200000001000000000000000c080000b5
:0c288c008a000000800000000000000036
:020000040000fa
:082898000040da000000fe0020
:00000001FF
